{
  "contractName": "Item",
  "abi": [
    {
      "inputs": [
        {
          "internalType": "contract ItemManager",
          "name": "_parentContract",
          "type": "address"
        },
        {
          "internalType": "uint256",
          "name": "_priceinWei",
          "type": "uint256"
        },
        {
          "internalType": "uint256",
          "name": "_index",
          "type": "uint256"
        }
      ],
      "stateMutability": "nonpayable",
      "type": "constructor"
    },
    {
      "inputs": [],
      "name": "index",
      "outputs": [
        {
          "internalType": "uint256",
          "name": "",
          "type": "uint256"
        }
      ],
      "stateMutability": "view",
      "type": "function"
    },
    {
      "inputs": [],
      "name": "priceinWei",
      "outputs": [
        {
          "internalType": "uint256",
          "name": "",
          "type": "uint256"
        }
      ],
      "stateMutability": "view",
      "type": "function"
    },
    {
      "stateMutability": "payable",
      "type": "receive"
    }
  ],
  "bytecode": "0x608060405234801561001057600080fd5b5060405161068f38038061068f833981810160405281019061003291906100b3565b816000819055508060028190555082600360006101000a81548173ffffffffffffffffffffffffffffffffffffffff021916908373ffffffffffffffffffffffffffffffffffffffff160217905550505050610187565b60008151905061009881610159565b92915050565b6000815190506100ad81610170565b92915050565b6000806000606084860312156100cc576100cb610154565b5b60006100da86828701610089565b93505060206100eb8682870161009e565b92505060406100fc8682870161009e565b9150509250925092565b60006101118261012a565b9050919050565b600061012382610106565b9050919050565b600073ffffffffffffffffffffffffffffffffffffffff82169050919050565b6000819050919050565b600080fd5b61016281610118565b811461016d57600080fd5b50565b6101798161014a565b811461018457600080fd5b50565b6104f9806101966000396000f3fe60806040526004361061002d5760003560e01c80632986c0e5146102475780634ba873881461027257610242565b3661024257600160009054906101000a900460ff1615610082576040517f08c379a0000000000000000000000000000000000000000000000000000000008152600401610079906103a9565b60405180910390fd5b34600054146100c6576040517f08c379a00000000000000000000000000000000000000000000000000000000081526004016100bd90610369565b60405180910390fd5b60018060006101000a81548160ff0219169083151502179055506000600360009054906101000a900473ffffffffffffffffffffffffffffffffffffffff1673ffffffffffffffffffffffffffffffffffffffff163460025460405160240161012f91906103c9565b6040516020818303038152906040527f800fb83f000000000000000000000000000000000000000000000000000000007bffffffffffffffffffffffffffffffffffffffffffffffffffffffff19166020820180517bffffffffffffffffffffffffffffffffffffffffffffffffffffffff83818316178352505050506040516101b99190610352565b60006040518083038185875af1925050503d80600081146101f6576040519150601f19603f3d011682016040523d82523d6000602084013e6101fb565b606091505b505090508061023f576040517f08c379a000000000000000000000000000000000000000000000000000000000815260040161023690610389565b60405180910390fd5b50005b600080fd5b34801561025357600080fd5b5061025c61029d565b60405161026991906103c9565b60405180910390f35b34801561027e57600080fd5b506102876102a3565b60405161029491906103c9565b60405180910390f35b60025481565b60005481565b60006102b4826103e4565b6102be81856103ef565b93506102ce818560208601610415565b80840191505092915050565b60006102e7601e836103fa565b91506102f282610448565b602082019050919050565b600061030a601e836103fa565b915061031582610471565b602082019050919050565b600061032d6014836103fa565b91506103388261049a565b602082019050919050565b61034c8161040b565b82525050565b600061035e82846102a9565b915081905092915050565b60006020820190508181036000830152610382816102da565b9050919050565b600060208201905081810360008301526103a2816102fd565b9050919050565b600060208201905081810360008301526103c281610320565b9050919050565b60006020820190506103de6000830184610343565b92915050565b600081519050919050565b600081905092915050565b600082825260208201905092915050565b6000819050919050565b60005b83811015610433578082015181840152602081019050610418565b83811115610442576000848401525b50505050565b7f6f6e6c792066756c6c207061796d656e74732061726520616c6c6f7765640000600082015250565b7f54686520747265616e73616374696f6e2069732063616e63656c6c696e670000600082015250565b7f4974656d20697320616c7265616479207061696400000000000000000000000060008201525056fea2646970667358221220b67cc4fd79e0d5c5b6f765ab3db6bfea6ef69b1190157eaa4f334e267788d94264736f6c63430008060033",
  "immutableReferences": {},
  "source": "//SPDX-License-Identifier: MIT\r\npragma solidity ^0.8.6;\r\nimport './ItemManager.sol';\r\n\r\ncontract Item {\r\n    uint public priceinWei;\r\n    bool pricePaid;\r\n    uint public index;\r\n    ItemManager parentContract;\r\n    \r\n    constructor(ItemManager _parentContract, uint _priceinWei, uint _index) {\r\n        priceinWei = _priceinWei;\r\n        index = _index;\r\n        parentContract = _parentContract;\r\n    }\r\n     receive() external payable{\r\n        require(!pricePaid, \"Item is already paid\");\r\n        require(priceinWei == msg.value,\"only full payments are allowed\");\r\n        pricePaid = true;\r\n        (bool success, ) = address(parentContract).call{value : msg.value}(abi.encodeWithSignature(\"triggerPayment(uint256)\", index));\r\n        require(success, \"The treansaction is cancelling\");\r\n     }\r\n    \r\n}",
  "sourcePath": "C:\\Users\\yash\\Desktop\\Ethereum-Projects\\SupplyChain\\contracts\\Item.sol",
  "compiler": {
    "name": "solc",
    "version": "0.8.6+commit.11564f7e.Emscripten.clang"
  },
  "schemaVersion": "3.4.2",
  "updatedAt": "2021-07-30T06:15:05.513Z",
  "devdoc": {
    "kind": "dev",
    "methods": {},
    "version": 1
  },
  "userdoc": {
    "kind": "user",
    "methods": {},
    "version": 1
  }
}